:1000000045C0000058C0000056C0000054C00000A9
:1000100052C0000050C000004EC000004CC00000A4
:100020004AC0000048C0000046C0000044C00000B4
:1000300042C0000040C000003EC000003CC00000C4
:100040003AC0000038C0000036C0000034C00000D4
:1000500032C0000030C000002EC000002CC00000E4
:100060002AC0000028C0000026C0000024C00000F4
:1000700022C0000020C000001EC000001CC0000004
:100080001AC0000018C0000016C0000011241FBED6
:10009000CFEFD0E1DEBFCDBF11E0A0E0B1E0EAE1FB
:1000A000F2E000E00BBF02C007900D92AA32B10748
:1000B000D9F71CD0B0C0A4CF5D9BFECF8CB98BB15B
:1000C00080628BB908955F9BFECF8CB19BB1906825
:1000D0009BB90895CF93DF93EC0102C0EDDF219629
:1000E00088818111FBCFDF91CF9108958EEF82B986
:1000F00080E887BB1BB888E18AB986E080939500C9
:100100001092900083E089B980E191E0E3DF8AE01A
:100110008FBD89E18EBD10927A001DBC1CBC10926F
:10012000790010927800CFDF9FEC980F983088F517
:10013000C0EDC80FC1DF8AE0BFDF8DE0BDDFEC2F6F
:10014000F0E03197EE0FFF1FE050FF4F208131812B
:1001500040E050E060E070E880E790E01ED037BDFE
:1001600026BD86B597B5929582958F7089279F7029
:10017000892790937900809378002FEF8FE39BE09D
:10018000215080409040E1F700C0000017BC16BC31
:10019000CACF8CE191E09EDFC6CF052E97FB16F407
:1001A00000940FD057FD05D014D007FC02D046F4C0
:1001B00008C050954095309521953F4F4F4F5F4F68
:1001C000089590958095709561957F4F8F4F9F4FC3
:1001D0000895A1E21A2EAA1BBB1BFD010DC0AA1F88
:1001E000BB1FEE1FFF1FA217B307E407F50720F0A0
:1001F000A21BB30BE40BF50B661F771F881F991F1B
:100200001A9469F760957095809590959B01AC0163
:0A021000BD01CF010895F894FFCF5F
:10021A000B024B029302BA020F037003DB031604AC
:10022A000D4C6574277320676F7E0A000D50726546
:0A023A0073732031207E20380A0083
:00000001FF
