:1000000045C0000058C0000056C0000054C00000A9
:1000100052C0000050C000004EC000004CC00000A4
:100020004AC0000048C0000046C0000044C00000B4
:1000300042C0000040C000003EC000003CC00000C4
:100040003AC0000038C0000036C0000034C00000D4
:1000500032C0000030C000002EC000002CC00000E4
:100060002AC0000028C0000026C0000024C00000F4
:1000700022C0000020C000001EC000001CC0000004
:100080001AC0000018C0000016C0000011241FBED6
:10009000CFEFD0E1DEBFCDBF11E0A0E0B1E0E6EFF1
:1000A000F2E000E00BBF02C007900D92AA32B10748
:1000B000D9F79AD01EC1A4CF5D9BFECF8CB98BB16E
:1000C00080628BB908955F9BFECF8CB19BB1906825
:1000D0009BB90895CF93DF93EC0102C0EDDF219629
:1000E00088818111FBCFDF91CF910895EF92FF922C
:1000F0000F931F93CF93DF93E82EF12C67C0CE2D83
:10010000D0E02197CC0FDD1FC050DF4F288139810F
:1001100040E050E060E070E880E790E0ACD037BDB0
:1001200026BD86B597B5929582958F7089279F7069
:10013000892708E710E0F80191838083FFEF2FE122
:1001400081E0F15020408040E1F700C000002881AC
:10015000398140E050E060E070E488E390E08BD0CB
:1001600037BD26BD86B597B5929582958F70892744
:100170009F708927F80191838083FFEF2FE181E051
:10018000F15020408040E1F700C000002881398113
:1001900040E050E060E070E28CE190E06CD037BD70
:1001A00026BD86B597B5929582958F7089279F70E9
:1001B0008927F80191838083FFEF2FE181E0F150DF
:1001C00020408040E1F700C00000F3949AE0F9126B
:1001D00096CF1092790010927800DF91CF911F9105
:1001E0000F91FF90EF9008958EEF82B980E887BB62
:1001F0001BB888E18AB986E0809395001092900040
:1002000083E089B980E191E065DF82E08FBD89E11B
:100210008EBD10927A001DBC1CBC10927900109209
:1002200078008FB588608FBDC0E00AC0EC2FF0E089
:10023000EE0FFF1FE050FF4F8081918157DFCF5FAE
:10024000C930A0F38FB58FBD3EDF9FEC980F98307B
:1002500070F49FB598609FBDC0EDC80F2DDF8AE098
:100260002BDF8DE029DF8C2F90E040DFEDCF8CE19C
:1002700091E030DFE9CF052E97FB16F400940FD004
:1002800057FD05D014D007FC02D046F408C05095A5
:100290004095309521953F4F4F4F5F4F0895909572
:1002A0008095709561957F4F8F4F9F4F0895A1E284
:1002B0001A2EAA1BBB1BFD010DC0AA1FBB1FEE1FE0
:1002C000FF1FA217B307E407F50720F0A21BB30B2B
:1002D000E40BF50B661F771F881F991F1A9469F7A7
:1002E00060957095809590959B01AC01BD01CF0103
:0602F0000895F894FFCF11
:1002F6000B024B029302BA020F037003DB031604D0
:100306000D4C6574277320676F7E0A000D50726569
:0A03160073732031207E20380A00A6
:00000001FF
