:1000000045C0000060C000005EC000005CC0000091
:100010005AC0000058C0000056C0000054C0000084
:1000200052C0000050C000004EC000004CC0000094
:100030004AC0000048C0000046C0000044C00000A4
:1000400042C0000040C000003EC000003CC00000B4
:100050003AC0000038C0000036C0000034C00000C4
:1000600032C000005BC000002EC000002CC00000A9
:100070002AC0000028C0000026C0000024C00000E4
:1000800022C0000020C000001EC0000011241FBEBE
:10009000CFEFD0E1DEBFCDBF11E0A0E0B1E0E8ECF2
:1000A000F1E000E00BBF02C007900D92AA30B1074B
:1000B000D9F721E0AAE0B1E001C01D92AD30B2074E
:1000C000E1F702D07FC09CCF8FEF8ABB12B884BB10
:1000D00010928B0085E480938A0080E280937D00FB
:1000E000ECE7F0E080818062808378948091000169
:1000F0008BBB15BA80910B018823D9F380910C0139
:100100008A3010F010920C01E0910C01F0E0E05008
:10011000FF4F80818BBB10920B01EBCF1F920F9290
:100120000FB60F9211245F936F937F938F939F93DA
:10013000AF93BF93F89481E085BB80910A01811150
:100140000FC085E080938A00109289001092880089
:10015000109281001092800081E080930A0111C00A
:1001600085E480938A00809180009091810060E214
:100170007CE114D060930C0110920A0181E080931D
:100180000B017894BF91AF919F918F917F916F9167
:100190005F910F900FBE0F901F901895AA1BBB1B6D
:1001A00051E107C0AA1FBB1FA617B70710F0A61B77
:1001B000B70B881F991F5A95A9F780959095BC0198
:0801C000CD010895F894FFCF72
:0A01C8003F065B4F666D7C077F6702
:00000001FF
