S01400004D696E695F50726F6A6563742E737265634D
S113000045C0000060C000005EC000005CC000008D
S11300105AC0000034C300004AC3000054C00000AA
S113002052C0000050C000004EC000004CC0000090
S11300304AC0000048C0000046C0000044C00000A0
S113004042C0000040C000003EC000003CC00000B0
S11300503AC0000038C0000036C0000034C00000C0
S113006032C0000030C000002EC000002CC00000D0
S11300702AC0000028C0000026C0000024C00000E0
S113008022C0000020C000001EC0000011241FBEBA
S1130090CFEFD0E1DEBFCDBF12E0A0E0B1E0E8E1F8
S11300A0F8E000E00BBF02C007900D92AA30B10740
S11300B0D9F722E0AAE0B2E001C01D92AB30B2074A
S11300C0E1F706D3A7C39CCFE5E6F0E09081916009
S11300D0908390819D7F908390819460908390E140
S11300E09A95F1F700C085BB80E18A95F1F700C0CD
S11300F080818B7F80830895E5E6F0E090819E7F88
S1130100908390819D7F908390819460908390E10F
S11301109A95F1F700C085BB80E18A95F1F700C09C
S113012080818B7F80830895CFDF89EF90E00197F2
S1130130F1F700C000000895CF93DF93EC0102C0F3
S1130140F3DF219688818111FBCFDF91CF91089550
S113015090E4899F600D1124862F8068CDDF81EEA5
S113016094E00197F1F700C00000089581E0C4DF36
S113017083EC99E00197F1F700C00000089588E34B
S1130180BBDF83EF91E00197F1F700C0000088E343
S1130190B3DF83EF91E00197F1F700C0000088E33B
S11301A0ABDF83EF91E00197F1F700C000008CE032
S11301B0A3DF83EF91E00197F1F700C0000086E030
S11301C09BDF83EF91E00197F1F700C00000CECFF1
S11301D0089580910A02811145C080E18BBB83E3BD
S11301E097E00197F1F7C9993FC0CA993FC0CB99ED
S11301F03FC08FEF97E40197F1F700C0000080E261
S11302008BBB83E397E00197F1F7C99933C0CA998F
S113021033C0CB9933C08FEF97E40197F1F700C057
S1130220000080E48BBB83E397E00197F1F7C99961
S113023027C0CA9927C0CB9927C08FEF97E40197AD
S1130240F1F700C0000080E88BBB83E397E00197DF
S1130250F1F7CA991BC08FEF97E40197F1F700C03B
S11302600000B7CF80E0089581E3089582E3089504
S113027083E3089584E3089585E3089586E3089568
S113028087E3089588E3089589E3089580E3089552
S1130290BC0190E00DC0292F30E0FB01E20FF31FF9
S11302A04081F901E35EFE4F2081421305C09F5F48
S11302B0943088F381E0089580E00895CF938130ED
S11302C019F1C0E04EC0EC2FF0E0EE0FFF1FE0503C
S11302D0FF4F2081318140E050E060E078E087E02A
S11302E090E05AD2309381002093800080E4809380
S11302F08B002FEF8FEB9FE0215080409040E1F77F
S113030000C00000CF5F01C0C0E0C330E0F2109233
S11303108B0029C0209100013091010140E050E0A0
S113032060E078E087E090E037D23093810020935A
S11303308000EBE8F0E080E480832FEF8FE39BE024
S1130340215080409040E1F700C0000010822FEF60
S11303508FE794E0215080409040E1F700C0000016
S1130360CF5FC330B8F2CF910895CF9391DF81115D
S11303701DC0C0E056C0FADE2FEF3FE744E0215035
S113038030404040E1F700C0000060E080E0E0DE83
S113039082E291E0D1DE8FEF9FE32BE08150904029
S11303A02040E1F700C00000CF5F01C0C0E0C330CF
S11303B010F381E083DF90E080E014C0E82FF0E0E8
S11303C0E05FFE4F208122BB8F5F883008F080E021
S11303D03FEF4FE121E0315040402040E1F700C0C1
S11303E000009F5F903650F31EC0C0DE3FEF4FE722
S11303F084E0315040408040E1F700C0000060E0FC
S113040080E0A6DE87E291E097DE80E057DF9FEF91
S11304102FE33BE0915020403040E1F700C0000062
S1130420CF5FC33010F3CF9108950F931F93CF93F1
S11304308C01C0E016C0CDDE8823A9F0F801EC0FD2
S1130440F11D808360E081E083DEC80175DE2FEF5B
S11304508FE593E0215080409040E1F700C0000018
S1130460CF5FC43040F3CF911F910F910895AC0139
S113047090E006C0FA01E90FF11D2AE220839F5F94
S11304809430C0F308955D9BFECF8CB98BB180622C
S11304908BB908955F9BFECF8CB19BB190689BB9DB
S11304A00895CF93DF93EC0102C0EDDF219688819C
S11304B08111FBCFDF91CF910895EF92FF920F93BB
S11304C01F93CF937C018AE0DEDF8DE0DCDF00E068
S11304D010E011C0DFDFC82FD6DF80ED8C0F8A302B
S11304E038F4F701E00FF11FC0830F5F1F4F03C003
S11304F08DE291E0D6DF0430110564F3CF911F91B2
S11305000F91FF90EF90089588E191E0B0DF8EE3C2
S113051091E0BEDE882381F083E491E0C2DF26DE31
S113052060E080E015DE84E591E006DE8DE191E097
S1130530C4DF85E691E0B5DF86E791E0B2DF88E1CC
S113054091E0BBDF89E891E0ACDF88E191E00DCF79
S11305500895CF938EE391E09BDE811103C08DE17A
S113056091E085DF03DE60E080E0F2DD8EE991E07A
S1130570E3DD8DE191E059DFC0E01AC0F7DD2FEF34
S11305808FE794E0215080409040E1F700C00000E4
S113059060E080E0DDDD81EB91E0CEDD2FEF8FE3E5
S11305A09BE0215080409040E1F700C00000CF5F05
S11305B0C33020F3CF91089588E191E058DF8EE3B2
S11305C091E066DE8111C5DF80910A02811111C0BC
S11305D0CDDD60E080E0BCDD83EC91E0ADDD88E161
S11305E091E023DF80910A02811103C088E191E048
S11305F0BCCE0895CF93BADD60E080E0A9DD82ED42
S113060091E09ADD2FEF8FEB91E2215080409040F2
S1130610E1F700C00000AADD60E080E099DD83EC32
S113062091E08ADD88E191E022DF88E191E0FDDE5E
S113063088E191E02DDE8130E9F48BDF1EC096DD88
S11306402FEF8FE794E0215080409040E1F700C005
S1130650000060E080E07CDD85EE91E06DDD2FEF51
S11306608FE39BE0215080409040E1F700C0000000
S1130670CF5F01C0C0E0C33010F3CF9108951F9243
S11306800F920FB60F9211248F93F89480910A025F
S1130690843319F410920A0203C084E380930A029B
S11306A078948F910F900FBE0F901F9018951F9202
S11306B00F920FB60F9211248F93F89485E38093D1
S11306C00A0278948F910F900FBE0F901F90189587
S11306D081EF8ABB88E082B98FEF84BB809364008A
S11306E090EF91BB90E297BB98B39F7D98BB10921B
S11306F08B0099E190938A0010928C0010928900EB
S1130700109288008ABF80E389BF88BF82B182606B
S113071082B91BB888E18AB986E08093950010926B
S1130720900083E089B92BDD21DD2FEF8FE392E088
S1130730215080409040E1F700C00000789416DD1D
S113074060E080E005DD85EF91E0F6DC60E081E0CB
S1130750FFDC8DE191E0F0DC2FEF8FEF9CE2215084
S113076080409040E1F700C0000080910A02843389
S113077049F4FCDC60E080E0EBDC84E092E0DCDC6B
S1130780C3DEF3CF80910A02853321F410920A026A
S113079031DFEBCF11DFE9CF052E97FB16F4009480
S11307A00FD057FD05D014D007FC02D046F408C082
S11307B050954095309521953F4F4F4F5F4F089589
S11307C090958095709561957F4F8F4F9F4F0895B9
S11307D0A1E21A2EAA1BBB1BFD010DC0AA1FBB1F41
S11307E0EE1FFF1FA217B307E407F50720F0A21BB3
S11307F0B30BE40BF50B661F771F881F991F1A9420
S113080069F760957095809590959B01AC01BD0149
S10B0810CF010895F894FFCF15
S11308180B024B029302BA020F037003DB031604A4
S11308289080C040602030102A2A2A2A002A2A2AC6
S11308382A004F50454E004572726F72000A0D49E6
S11308486E736572742030207E20390A0D002A2ABE
S11308582A2A000A0D5365742050617373776F72E6
S1130868643A20000A0D5365742050617373776FDE
S11308787264210A000A0D50617373776F726420E1
S1130888736574210A000A0D5072657373205061F0
S11308987373776F7264210A000A0D50617373775A
S11308A86F72642070726573736564210A005072F4
S11308B8657373204E65772050617373776F726424
S11308C80050617373776F7264204368616E676563
S11308D864210050726573732050617373776F726B
S11308E864003C3C52657365742050617373776F80
S11308F872643E3E0057726F6E672050617373775F
S11309086F7264210050726F6772616D2053746155
S10D0918727421005541525421006D
S9030000FC
